{
  "contractName": "AirDrop",
  "abi": [
    {
      "inputs": [],
      "stateMutability": "nonpayable",
      "type": "constructor"
    },
    {
      "inputs": [],
      "name": "bankai",
      "outputs": [
        {
          "internalType": "contract interfaceBankAI",
          "name": "",
          "type": "address"
        }
      ],
      "stateMutability": "view",
      "type": "function",
      "constant": true
    },
    {
      "inputs": [],
      "name": "owner",
      "outputs": [
        {
          "internalType": "address",
          "name": "",
          "type": "address"
        }
      ],
      "stateMutability": "view",
      "type": "function",
      "constant": true
    },
    {
      "inputs": [
        {
          "internalType": "address",
          "name": "_to",
          "type": "address"
        },
        {
          "internalType": "uint256",
          "name": "_amount",
          "type": "uint256"
        }
      ],
      "name": "sendAirDrop",
      "outputs": [],
      "stateMutability": "nonpayable",
      "type": "function"
    }
  ],
  "bytecode": "0x608060405234801561001057600080fd5b50336000806101000a81548173ffffffffffffffffffffffffffffffffffffffff021916908373ffffffffffffffffffffffffffffffffffffffff16021790555073cdd5a50aa8f7affbd1e442d3681fb06f5226b515600160006101000a81548173ffffffffffffffffffffffffffffffffffffffff021916908373ffffffffffffffffffffffffffffffffffffffff160217905550610471806100b56000396000f3fe608060405234801561001057600080fd5b50600436106100415760003560e01c80638da5cb5b14610046578063b87e7e3f14610064578063e8ebcdac14610080575b600080fd5b61004e61009e565b60405161005b919061024a565b60405180910390f35b61007e600480360381019061007991906102cc565b6100c2565b005b6100886101e3565b604051610095919061036b565b60405180910390f35b60008054906101000a900473ffffffffffffffffffffffffffffffffffffffff1681565b3373ffffffffffffffffffffffffffffffffffffffff1660008054906101000a900473ffffffffffffffffffffffffffffffffffffffff1673ffffffffffffffffffffffffffffffffffffffff1614610150576040517f08c379a0000000000000000000000000000000000000000000000000000000008152600401610147906103e3565b60405180910390fd5b600160009054906101000a900473ffffffffffffffffffffffffffffffffffffffff1673ffffffffffffffffffffffffffffffffffffffff1663a9059cbb83836040518363ffffffff1660e01b81526004016101ad929190610412565b600060405180830381600087803b1580156101c757600080fd5b505af11580156101db573d6000803e3d6000fd5b505050505050565b600160009054906101000a900473ffffffffffffffffffffffffffffffffffffffff1681565b600073ffffffffffffffffffffffffffffffffffffffff82169050919050565b600061023482610209565b9050919050565b61024481610229565b82525050565b600060208201905061025f600083018461023b565b92915050565b600080fd5b61027381610229565b811461027e57600080fd5b50565b6000813590506102908161026a565b92915050565b6000819050919050565b6102a981610296565b81146102b457600080fd5b50565b6000813590506102c6816102a0565b92915050565b600080604083850312156102e3576102e2610265565b5b60006102f185828601610281565b9250506020610302858286016102b7565b9150509250929050565b6000819050919050565b600061033161032c61032784610209565b61030c565b610209565b9050919050565b600061034382610316565b9050919050565b600061035582610338565b9050919050565b6103658161034a565b82525050565b6000602082019050610380600083018461035c565b92915050565b600082825260208201905092915050565b7f536f206f20646f6e6f20706f6465206578656375746172206973736f2e000000600082015250565b60006103cd601d83610386565b91506103d882610397565b602082019050919050565b600060208201905081810360008301526103fc816103c0565b9050919050565b61040c81610296565b82525050565b6000604082019050610427600083018561023b565b6104346020830184610403565b939250505056fea2646970667358221220ab593c9c698ddb80bd27f5b6142d2217198cbeb625bb438b0bd67f5449f69aaf64736f6c63430008100033",
  "immutableReferences": {},
  "source": "// SPDX-License-Identifier: MIT\npragma solidity ^0.8.4;\n\ninterface interfaceBankAI {\n    function transfer (address _to, uint256 _amount) external;\n    function balanceOf(address account) external returns (uint256);\n}\n\n\ncontract AirDrop {\n    address public owner;\n    interfaceBankAI public bankai;\n    constructor ()\n    {\n        owner=msg.sender;\n        bankai = interfaceBankAI(0xCDD5A50aa8f7AFFBD1E442D3681Fb06f5226B515);\n    }\n\n    modifier onlyOwner {\n        require (owner==msg.sender, \"So o dono pode executar isso.\");\n        _;\n    }\n    \n    function sendAirDrop (address _to, uint256 _amount) public onlyOwner\n    {\n        bankai.transfer(_to, _amount);\n    }\n}",
  "sourcePath": "/home/lucas-ibrahim/rea de Trabalho/2ndMarket/DesafioCrowdSale/contracts/Airdrop.sol",
  "compiler": {
    "name": "solc",
    "version": "0.8.16+commit.07a7930e.Emscripten.clang"
  },
  "schemaVersion": "3.4.9",
  "updatedAt": "2022-10-04T13:06:37.572Z",
  "networkType": "ethereum",
  "devdoc": {
    "kind": "dev",
    "methods": {},
    "version": 1
  },
  "userdoc": {
    "kind": "user",
    "methods": {},
    "version": 1
  }
}