{
  "contractName": "CrowdSale",
  "abi": [
    {
      "inputs": [],
      "stateMutability": "nonpayable",
      "type": "constructor"
    },
    {
      "stateMutability": "payable",
      "type": "fallback",
      "payable": true
    },
    {
      "inputs": [],
      "name": "bankai",
      "outputs": [
        {
          "internalType": "contract interfaceBankAI",
          "name": "",
          "type": "address"
        }
      ],
      "stateMutability": "view",
      "type": "function",
      "constant": true
    },
    {
      "inputs": [],
      "name": "owner",
      "outputs": [
        {
          "internalType": "address",
          "name": "",
          "type": "address"
        }
      ],
      "stateMutability": "view",
      "type": "function",
      "constant": true
    },
    {
      "inputs": [],
      "name": "wallet",
      "outputs": [
        {
          "internalType": "address",
          "name": "",
          "type": "address"
        }
      ],
      "stateMutability": "view",
      "type": "function",
      "constant": true
    },
    {
      "stateMutability": "payable",
      "type": "receive",
      "payable": true
    },
    {
      "inputs": [],
      "name": "stopICO",
      "outputs": [],
      "stateMutability": "nonpayable",
      "type": "function"
    }
  ],
  "bytecode": "0x608060405234801561001057600080fd5b5073d24ee1878c406af5c87c3861f0f614d645acc4e3600260006101000a81548173ffffffffffffffffffffffffffffffffffffffff021916908373ffffffffffffffffffffffffffffffffffffffff16021790555033600160006101000a81548173ffffffffffffffffffffffffffffffffffffffff021916908373ffffffffffffffffffffffffffffffffffffffff16021790555073cdd5a50aa8f7affbd1e442d3681fb06f5226b5156000806101000a81548173ffffffffffffffffffffffffffffffffffffffff021916908373ffffffffffffffffffffffffffffffffffffffff16021790555061086e8061010a6000396000f3fe6080604052600436106100435760003560e01c8063521eb2731461005c5780638da5cb5b14610087578063c8e569a8146100b2578063e8ebcdac146100c957610052565b36610052576100506100f4565b005b61005a6100f4565b005b34801561006857600080fd5b50610071610265565b60405161007e91906104ff565b60405180910390f35b34801561009357600080fd5b5061009c61028b565b6040516100a991906104ff565b60405180910390f35b3480156100be57600080fd5b506100c76102b1565b005b3480156100d557600080fd5b506100de61049a565b6040516100eb9190610579565b60405180910390f35b6000600260009054906101000a900473ffffffffffffffffffffffffffffffffffffffff1673ffffffffffffffffffffffffffffffffffffffff163460405161013c906105c5565b60006040518083038185875af1925050503d8060008114610179576040519150601f19603f3d011682016040523d82523d6000602084013e61017e565b606091505b50509050806101c2576040517f08c379a00000000000000000000000000000000000000000000000000000000081526004016101b99061065d565b60405180910390fd5b600061c350346101d291906106b6565b905060008054906101000a900473ffffffffffffffffffffffffffffffffffffffff1673ffffffffffffffffffffffffffffffffffffffff1663a9059cbb33836040518363ffffffff1660e01b815260040161022f92919061071f565b600060405180830381600087803b15801561024957600080fd5b505af115801561025d573d6000803e3d6000fd5b505050505050565b600260009054906101000a900473ffffffffffffffffffffffffffffffffffffffff1681565b600160009054906101000a900473ffffffffffffffffffffffffffffffffffffffff1681565b600160009054906101000a900473ffffffffffffffffffffffffffffffffffffffff1673ffffffffffffffffffffffffffffffffffffffff163373ffffffffffffffffffffffffffffffffffffffff1614610341576040517f08c379a0000000000000000000000000000000000000000000000000000000008152600401610338906107ba565b60405180910390fd5b600030905060008060009054906101000a900473ffffffffffffffffffffffffffffffffffffffff1673ffffffffffffffffffffffffffffffffffffffff166370a08231836040518263ffffffff1660e01b81526004016103a291906104ff565b6020604051808303816000875af11580156103c1573d6000803e3d6000fd5b505050506040513d601f19601f820116820180604052508101906103e5919061080b565b905060008054906101000a900473ffffffffffffffffffffffffffffffffffffffff1673ffffffffffffffffffffffffffffffffffffffff1663a9059cbb600160009054906101000a900473ffffffffffffffffffffffffffffffffffffffff16836040518363ffffffff1660e01b815260040161046492919061071f565b600060405180830381600087803b15801561047e57600080fd5b505af1158015610492573d6000803e3d6000fd5b505050505050565b60008054906101000a900473ffffffffffffffffffffffffffffffffffffffff1681565b600073ffffffffffffffffffffffffffffffffffffffff82169050919050565b60006104e9826104be565b9050919050565b6104f9816104de565b82525050565b600060208201905061051460008301846104f0565b92915050565b6000819050919050565b600061053f61053a610535846104be565b61051a565b6104be565b9050919050565b600061055182610524565b9050919050565b600061056382610546565b9050919050565b61057381610558565b82525050565b600060208201905061058e600083018461056a565b92915050565b600081905092915050565b50565b60006105af600083610594565b91506105ba8261059f565b600082019050919050565b60006105d0826105a2565b9150819050919050565b600082825260208201905092915050565b7f486f75766520616c67756d2070726f626c656d61206e6120686f72612064652060008201527f7361636172000000000000000000000000000000000000000000000000000000602082015250565b60006106476025836105da565b9150610652826105eb565b604082019050919050565b600060208201905081810360008301526106768161063a565b9050919050565b6000819050919050565b7f4e487b7100000000000000000000000000000000000000000000000000000000600052601160045260246000fd5b60006106c18261067d565b91506106cc8361067d565b9250817fffffffffffffffffffffffffffffffffffffffffffffffffffffffffffffffff048311821515161561070557610704610687565b5b828202905092915050565b6107198161067d565b82525050565b600060408201905061073460008301856104f0565b6107416020830184610710565b9392505050565b7f536f206f20646f6e6f20706f646520657865637574617220657374612061636160008201527f6f2e000000000000000000000000000000000000000000000000000000000000602082015250565b60006107a46022836105da565b91506107af82610748565b604082019050919050565b600060208201905081810360008301526107d381610797565b9050919050565b600080fd5b6107e88161067d565b81146107f357600080fd5b50565b600081519050610805816107df565b92915050565b600060208284031215610821576108206107da565b5b600061082f848285016107f6565b9150509291505056fea2646970667358221220f82a7b6805c30bcf379ee4e785bc8433405b2ed7200f7a6e36883e8beabfe8d564736f6c63430008100033",
  "immutableReferences": {},
  "source": "// SPDX-License-Identifier: MIT\npragma solidity ^0.8.4;\n\ninterface interfaceBankAI {\n    function transfer (address _to, uint256 _amount) external;\n    function balanceOf(address account) external returns (uint256);\n}\n\ncontract CrowdSale {\n\n    interfaceBankAI public bankai;\n    address public owner;\n    address public wallet;\n    //mapping (address => uint256) balanceOf;\n    constructor () {\n        wallet = 0xd24EE1878c406aF5C87c3861F0F614d645ACC4e3;\n        owner = msg.sender;\n        bankai = interfaceBankAI(0xCDD5A50aa8f7AFFBD1E442D3681Fb06f5226B515);\n\n    }\n\n    modifier onlyOwner {\n        require(msg.sender == owner, \"So o dono pode executar esta acao.\");\n        _;\n    }\n    \n    function stopICO() public onlyOwner\n    {\n        address end = address(this);\n        uint256 quantidade;\n        quantidade = uint256(bankai.balanceOf(end));\n        bankai.transfer(owner, quantidade);\n    }\n\n    function sale () private\n    {\n        (bool success, ) = payable(wallet).call{value:msg.value}(\"\");\n        require(success, \"Houve algum problema na hora de sacar\");\n        uint qnt = msg.value*50000;\n        bankai.transfer(msg.sender, qnt);\n    }\n\n    fallback () external payable {\n        sale();\n    }\n    receive() external payable {\n        sale();\n    }\n\n}",
  "sourcePath": "/home/lucas-ibrahim/rea de Trabalho/2ndMarket/DesafioCrowdSale/contracts/CrowdSale.sol",
  "compiler": {
    "name": "solc",
    "version": "0.8.16+commit.07a7930e.Emscripten.clang"
  },
  "schemaVersion": "3.4.9",
  "updatedAt": "2022-10-04T13:06:37.576Z",
  "networkType": "ethereum",
  "devdoc": {
    "kind": "dev",
    "methods": {},
    "version": 1
  },
  "userdoc": {
    "kind": "user",
    "methods": {},
    "version": 1
  }
}